{
    "contractName": "Inbox",
    "abi": [
        {
            "inputs": [
                {
                    "internalType": "string",
                    "name": "initialMessage",
                    "type": "string"
                }
            ],
            "stateMutability": "nonpayable",
            "type": "constructor"
        },
        {
            "inputs": [],
            "name": "message",
            "outputs": [
                {
                    "internalType": "string",
                    "name": "",
                    "type": "string"
                }
            ],
            "stateMutability": "view",
            "type": "function"
        },
        {
            "inputs": [
                {
                    "internalType": "string",
                    "name": "newMessage",
                    "type": "string"
                }
            ],
            "name": "setMessage",
            "outputs": [],
            "stateMutability": "nonpayable",
            "type": "function"
        }
    ],
    "bytecode": "608060405234801561001057600080fd5b5060405161054a38038061054a83398101604081905261002f916100e2565b8051610042906000906020840190610049565b5050610202565b828054610055906101b1565b90600052602060002090601f01602090048101928261007757600085556100bd565b82601f1061009057805160ff19168380011785556100bd565b828001600101855582156100bd579182015b828111156100bd5782518255916020019190600101906100a2565b506100c99291506100cd565b5090565b5b808211156100c957600081556001016100ce565b600060208083850312156100f557600080fd5b82516001600160401b038082111561010c57600080fd5b818501915085601f83011261012057600080fd5b815181811115610132576101326101ec565b604051601f8201601f19908116603f0116810190838211818310171561015a5761015a6101ec565b81604052828152888684870101111561017257600080fd5b600093505b828410156101945784840186015181850187015292850192610177565b828411156101a55760008684830101525b98975050505050505050565b600181811c908216806101c557607f821691505b602082108114156101e657634e487b7160e01b600052602260045260246000fd5b50919050565b634e487b7160e01b600052604160045260246000fd5b610339806102116000396000f3fe608060405234801561001057600080fd5b50600436106100365760003560e01c8063368b87721461003b578063e21f37ce14610050575b600080fd5b61004e6100493660046101ac565b61006e565b005b610058610085565b604051610065919061025d565b60405180910390f35b8051610081906000906020840190610113565b5050565b60008054610092906102b2565b80601f01602080910402602001604051908101604052809291908181526020018280546100be906102b2565b801561010b5780601f106100e05761010080835404028352916020019161010b565b820191906000526020600020905b8154815290600101906020018083116100ee57829003601f168201915b505050505081565b82805461011f906102b2565b90600052602060002090601f0160209004810192826101415760008555610187565b82601f1061015a57805160ff1916838001178555610187565b82800160010185558215610187579182015b8281111561018757825182559160200191906001019061016c565b50610193929150610197565b5090565b5b808211156101935760008155600101610198565b6000602082840312156101be57600080fd5b813567ffffffffffffffff808211156101d657600080fd5b818401915084601f8301126101ea57600080fd5b8135818111156101fc576101fc6102ed565b604051601f8201601f19908116603f01168101908382118183101715610224576102246102ed565b8160405282815287602084870101111561023d57600080fd5b826020860160208301376000928101602001929092525095945050505050565b600060208083528351808285015260005b8181101561028a5785810183015185820160400152820161026e565b8181111561029c576000604083870101525b50601f01601f1916929092016040019392505050565b600181811c908216806102c657607f821691505b602082108114156102e757634e487b7160e01b600052602260045260246000fd5b50919050565b634e487b7160e01b600052604160045260246000fdfea26469706673582212207f2a9329157b0703a119d28f5bb86ec9a1b60ad5edf69419d82d646854227e5b64736f6c63430008070033",
    "sourcePath": "c:/Users/acame/Documents/Ethereum/inbox/contracts/Inbox.sol",
    "compiler": {
        "name": "solc",
        "version": "0.8.7+commit.e28d00a7"
    },
    "functionHashes": {
        "message()": "e21f37ce",
        "setMessage(string)": "368b8772"
    },
    "gasEstimates": {
        "creation": {
            "codeDepositCost": "165000",
            "executionCost": "infinite",
            "totalCost": "infinite"
        },
        "external": {
            "message()": "infinite",
            "setMessage(string)": "infinite"
        }
    }
}